{
  "_format": "hh-sol-artifact-1",
  "contractName": "MyNFT",
  "sourceName": "contracts/MyNFT.sol",
  "abi": [
    {
      "inputs": [
        {
          "internalType": "string",
          "name": "name_",
          "type": "string"
        },
        {
          "internalType": "string",
          "name": "symbol_",
          "type": "string"
        },
        {
          "internalType": "uint96",
          "name": "royaltyFeeNumerator_",
          "type": "uint96"
        },
        {
          "internalType": "uint256",
          "name": "mintPriceWei",
          "type": "uint256"
        }
      ],
      "stateMutability": "nonpayable",
      "type": "constructor"
    },
    {
      "inputs": [
        {
          "internalType": "uint256",
          "name": "numerator",
          "type": "uint256"
        },
        {
          "internalType": "uint256",
          "name": "denominator",
          "type": "uint256"
        }
      ],
      "name": "ERC2981InvalidDefaultRoyalty",
      "type": "error"
    },
    {
      "inputs": [
        {
          "internalType": "address",
          "name": "receiver",
          "type": "address"
        }
      ],
      "name": "ERC2981InvalidDefaultRoyaltyReceiver",
      "type": "error"
    },
    {
      "inputs": [
        {
          "internalType": "uint256",
          "name": "tokenId",
          "type": "uint256"
        },
        {
          "internalType": "uint256",
          "name": "numerator",
          "type": "uint256"
        },
        {
          "internalType": "uint256",
          "name": "denominator",
          "type": "uint256"
        }
      ],
      "name": "ERC2981InvalidTokenRoyalty",
      "type": "error"
    },
    {
      "inputs": [
        {
          "internalType": "uint256",
          "name": "tokenId",
          "type": "uint256"
        },
        {
          "internalType": "address",
          "name": "receiver",
          "type": "address"
        }
      ],
      "name": "ERC2981InvalidTokenRoyaltyReceiver",
      "type": "error"
    },
    {
      "inputs": [
        {
          "internalType": "address",
          "name": "sender",
          "type": "address"
        },
        {
          "internalType": "uint256",
          "name": "tokenId",
          "type": "uint256"
        },
        {
          "internalType": "address",
          "name": "owner",
          "type": "address"
        }
      ],
      "name": "ERC721IncorrectOwner",
      "type": "error"
    },
    {
      "inputs": [
        {
          "internalType": "address",
          "name": "operator",
          "type": "address"
        },
        {
          "internalType": "uint256",
          "name": "tokenId",
          "type": "uint256"
        }
      ],
      "name": "ERC721InsufficientApproval",
      "type": "error"
    },
    {
      "inputs": [
        {
          "internalType": "address",
          "name": "approver",
          "type": "address"
        }
      ],
      "name": "ERC721InvalidApprover",
      "type": "error"
    },
    {
      "inputs": [
        {
          "internalType": "address",
          "name": "operator",
          "type": "address"
        }
      ],
      "name": "ERC721InvalidOperator",
      "type": "error"
    },
    {
      "inputs": [
        {
          "internalType": "address",
          "name": "owner",
          "type": "address"
        }
      ],
      "name": "ERC721InvalidOwner",
      "type": "error"
    },
    {
      "inputs": [
        {
          "internalType": "address",
          "name": "receiver",
          "type": "address"
        }
      ],
      "name": "ERC721InvalidReceiver",
      "type": "error"
    },
    {
      "inputs": [
        {
          "internalType": "address",
          "name": "sender",
          "type": "address"
        }
      ],
      "name": "ERC721InvalidSender",
      "type": "error"
    },
    {
      "inputs": [
        {
          "internalType": "uint256",
          "name": "tokenId",
          "type": "uint256"
        }
      ],
      "name": "ERC721NonexistentToken",
      "type": "error"
    },
    {
      "inputs": [
        {
          "internalType": "address",
          "name": "owner",
          "type": "address"
        }
      ],
      "name": "OwnableInvalidOwner",
      "type": "error"
    },
    {
      "inputs": [
        {
          "internalType": "address",
          "name": "account",
          "type": "address"
        }
      ],
      "name": "OwnableUnauthorizedAccount",
      "type": "error"
    },
    {
      "inputs": [],
      "name": "ReentrancyGuardReentrantCall",
      "type": "error"
    },
    {
      "anonymous": false,
      "inputs": [
        {
          "indexed": true,
          "internalType": "address",
          "name": "owner",
          "type": "address"
        },
        {
          "indexed": true,
          "internalType": "address",
          "name": "approved",
          "type": "address"
        },
        {
          "indexed": true,
          "internalType": "uint256",
          "name": "tokenId",
          "type": "uint256"
        }
      ],
      "name": "Approval",
      "type": "event"
    },
    {
      "anonymous": false,
      "inputs": [
        {
          "indexed": true,
          "internalType": "address",
          "name": "owner",
          "type": "address"
        },
        {
          "indexed": true,
          "internalType": "address",
          "name": "operator",
          "type": "address"
        },
        {
          "indexed": false,
          "internalType": "bool",
          "name": "approved",
          "type": "bool"
        }
      ],
      "name": "ApprovalForAll",
      "type": "event"
    },
    {
      "anonymous": false,
      "inputs": [
        {
          "indexed": false,
          "internalType": "uint256",
          "name": "_fromTokenId",
          "type": "uint256"
        },
        {
          "indexed": false,
          "internalType": "uint256",
          "name": "_toTokenId",
          "type": "uint256"
        }
      ],
      "name": "BatchMetadataUpdate",
      "type": "event"
    },
    {
      "anonymous": false,
      "inputs": [
        {
          "indexed": false,
          "internalType": "uint256",
          "name": "_tokenId",
          "type": "uint256"
        }
      ],
      "name": "MetadataUpdate",
      "type": "event"
    },
    {
      "anonymous": false,
      "inputs": [
        {
          "indexed": true,
          "internalType": "address",
          "name": "previousOwner",
          "type": "address"
        },
        {
          "indexed": true,
          "internalType": "address",
          "name": "newOwner",
          "type": "address"
        }
      ],
      "name": "OwnershipTransferred",
      "type": "event"
    },
    {
      "anonymous": false,
      "inputs": [
        {
          "indexed": true,
          "internalType": "address",
          "name": "from",
          "type": "address"
        },
        {
          "indexed": true,
          "internalType": "address",
          "name": "to",
          "type": "address"
        },
        {
          "indexed": true,
          "internalType": "uint256",
          "name": "tokenId",
          "type": "uint256"
        }
      ],
      "name": "Transfer",
      "type": "event"
    },
    {
      "inputs": [
        {
          "internalType": "address",
          "name": "to",
          "type": "address"
        },
        {
          "internalType": "uint256",
          "name": "tokenId",
          "type": "uint256"
        }
      ],
      "name": "approve",
      "outputs": [],
      "stateMutability": "nonpayable",
      "type": "function"
    },
    {
      "inputs": [
        {
          "internalType": "address",
          "name": "owner",
          "type": "address"
        }
      ],
      "name": "balanceOf",
      "outputs": [
        {
          "internalType": "uint256",
          "name": "",
          "type": "uint256"
        }
      ],
      "stateMutability": "view",
      "type": "function"
    },
    {
      "inputs": [
        {
          "internalType": "uint256",
          "name": "tokenId",
          "type": "uint256"
        }
      ],
      "name": "getApproved",
      "outputs": [
        {
          "internalType": "address",
          "name": "",
          "type": "address"
        }
      ],
      "stateMutability": "view",
      "type": "function"
    },
    {
      "inputs": [
        {
          "internalType": "address",
          "name": "owner",
          "type": "address"
        },
        {
          "internalType": "address",
          "name": "operator",
          "type": "address"
        }
      ],
      "name": "isApprovedForAll",
      "outputs": [
        {
          "internalType": "bool",
          "name": "",
          "type": "bool"
        }
      ],
      "stateMutability": "view",
      "type": "function"
    },
    {
      "inputs": [
        {
          "internalType": "string",
          "name": "tokenURI_",
          "type": "string"
        }
      ],
      "name": "mint",
      "outputs": [],
      "stateMutability": "payable",
      "type": "function"
    },
    {
      "inputs": [],
      "name": "mintPaused",
      "outputs": [
        {
          "internalType": "bool",
          "name": "",
          "type": "bool"
        }
      ],
      "stateMutability": "view",
      "type": "function"
    },
    {
      "inputs": [],
      "name": "mintPrice",
      "outputs": [
        {
          "internalType": "uint256",
          "name": "",
          "type": "uint256"
        }
      ],
      "stateMutability": "view",
      "type": "function"
    },
    {
      "inputs": [],
      "name": "name",
      "outputs": [
        {
          "internalType": "string",
          "name": "",
          "type": "string"
        }
      ],
      "stateMutability": "view",
      "type": "function"
    },
    {
      "inputs": [],
      "name": "owner",
      "outputs": [
        {
          "internalType": "address",
          "name": "",
          "type": "address"
        }
      ],
      "stateMutability": "view",
      "type": "function"
    },
    {
      "inputs": [
        {
          "internalType": "uint256",
          "name": "tokenId",
          "type": "uint256"
        }
      ],
      "name": "ownerOf",
      "outputs": [
        {
          "internalType": "address",
          "name": "",
          "type": "address"
        }
      ],
      "stateMutability": "view",
      "type": "function"
    },
    {
      "inputs": [
        {
          "internalType": "bool",
          "name": "p",
          "type": "bool"
        }
      ],
      "name": "pauseMint",
      "outputs": [],
      "stateMutability": "nonpayable",
      "type": "function"
    },
    {
      "inputs": [],
      "name": "renounceOwnership",
      "outputs": [],
      "stateMutability": "nonpayable",
      "type": "function"
    },
    {
      "inputs": [
        {
          "internalType": "uint256",
          "name": "tokenId",
          "type": "uint256"
        },
        {
          "internalType": "uint256",
          "name": "salePrice",
          "type": "uint256"
        }
      ],
      "name": "royaltyInfo",
      "outputs": [
        {
          "internalType": "address",
          "name": "receiver",
          "type": "address"
        },
        {
          "internalType": "uint256",
          "name": "amount",
          "type": "uint256"
        }
      ],
      "stateMutability": "view",
      "type": "function"
    },
    {
      "inputs": [
        {
          "internalType": "address",
          "name": "from",
          "type": "address"
        },
        {
          "internalType": "address",
          "name": "to",
          "type": "address"
        },
        {
          "internalType": "uint256",
          "name": "tokenId",
          "type": "uint256"
        }
      ],
      "name": "safeTransferFrom",
      "outputs": [],
      "stateMutability": "nonpayable",
      "type": "function"
    },
    {
      "inputs": [
        {
          "internalType": "address",
          "name": "from",
          "type": "address"
        },
        {
          "internalType": "address",
          "name": "to",
          "type": "address"
        },
        {
          "internalType": "uint256",
          "name": "tokenId",
          "type": "uint256"
        },
        {
          "internalType": "bytes",
          "name": "data",
          "type": "bytes"
        }
      ],
      "name": "safeTransferFrom",
      "outputs": [],
      "stateMutability": "nonpayable",
      "type": "function"
    },
    {
      "inputs": [
        {
          "internalType": "address",
          "name": "operator",
          "type": "address"
        },
        {
          "internalType": "bool",
          "name": "approved",
          "type": "bool"
        }
      ],
      "name": "setApprovalForAll",
      "outputs": [],
      "stateMutability": "nonpayable",
      "type": "function"
    },
    {
      "inputs": [
        {
          "internalType": "uint256",
          "name": "newPrice",
          "type": "uint256"
        }
      ],
      "name": "setMintPrice",
      "outputs": [],
      "stateMutability": "nonpayable",
      "type": "function"
    },
    {
      "inputs": [
        {
          "internalType": "address",
          "name": "receiver",
          "type": "address"
        },
        {
          "internalType": "uint96",
          "name": "feeNumerator",
          "type": "uint96"
        }
      ],
      "name": "setRoyalty",
      "outputs": [],
      "stateMutability": "nonpayable",
      "type": "function"
    },
    {
      "inputs": [
        {
          "internalType": "bytes4",
          "name": "interfaceId",
          "type": "bytes4"
        }
      ],
      "name": "supportsInterface",
      "outputs": [
        {
          "internalType": "bool",
          "name": "",
          "type": "bool"
        }
      ],
      "stateMutability": "view",
      "type": "function"
    },
    {
      "inputs": [],
      "name": "symbol",
      "outputs": [
        {
          "internalType": "string",
          "name": "",
          "type": "string"
        }
      ],
      "stateMutability": "view",
      "type": "function"
    },
    {
      "inputs": [
        {
          "internalType": "uint256",
          "name": "tokenId",
          "type": "uint256"
        }
      ],
      "name": "tokenURI",
      "outputs": [
        {
          "internalType": "string",
          "name": "",
          "type": "string"
        }
      ],
      "stateMutability": "view",
      "type": "function"
    },
    {
      "inputs": [
        {
          "internalType": "address",
          "name": "from",
          "type": "address"
        },
        {
          "internalType": "address",
          "name": "to",
          "type": "address"
        },
        {
          "internalType": "uint256",
          "name": "tokenId",
          "type": "uint256"
        }
      ],
      "name": "transferFrom",
      "outputs": [],
      "stateMutability": "nonpayable",
      "type": "function"
    },
    {
      "inputs": [
        {
          "internalType": "address",
          "name": "newOwner",
          "type": "address"
        }
      ],
      "name": "transferOwnership",
      "outputs": [],
      "stateMutability": "nonpayable",
      "type": "function"
    }
  ],
  "bytecode": "0x60806040523480156200001157600080fd5b5060405162001ddd38038062001ddd83398101604081905262000034916200027b565b33848460006200004583826200039f565b5060016200005482826200039f565b5050506001600160a01b0381166200008757604051631e4fbdf760e01b8152600060048201526024015b60405180910390fd5b6200009281620000ba565b506001600a55620000a433836200010c565b600c555050600d805460ff19169055506200046b565b600780546001600160a01b038381166001600160a01b0319831681179093556040519116919082907f8be0079c531659141344cd1fd0a4f28419497f9722a3daafe3b4186f6b6457e090600090a35050565b6127106001600160601b0382168110156200014d57604051636f483d0960e01b81526001600160601b0383166004820152602481018290526044016200007e565b6001600160a01b0383166200017957604051635b6cc80560e11b8152600060048201526024016200007e565b50604080518082019091526001600160a01b039092168083526001600160601b039091166020909201829052600160a01b90910217600855565b634e487b7160e01b600052604160045260246000fd5b600082601f830112620001db57600080fd5b81516001600160401b0380821115620001f857620001f8620001b3565b604051601f8301601f19908116603f01168101908282118183101715620002235762000223620001b3565b81604052838152602092508660208588010111156200024157600080fd5b600091505b8382101562000265578582018301518183018401529082019062000246565b6000602085830101528094505050505092915050565b600080600080608085870312156200029257600080fd5b84516001600160401b0380821115620002aa57600080fd5b620002b888838901620001c9565b95506020870151915080821115620002cf57600080fd5b50620002de87828801620001c9565b604087015190945090506001600160601b0381168114620002fe57600080fd5b6060959095015193969295505050565b600181811c908216806200032357607f821691505b6020821081036200034457634e487b7160e01b600052602260045260246000fd5b50919050565b601f8211156200039a576000816000526020600020601f850160051c81016020861015620003755750805b601f850160051c820191505b81811015620003965782815560010162000381565b5050505b505050565b81516001600160401b03811115620003bb57620003bb620001b3565b620003d381620003cc84546200030e565b846200034a565b602080601f8311600181146200040b5760008415620003f25750858301515b600019600386901b1c1916600185901b17855562000396565b600085815260208120601f198616915b828110156200043c578886015182559484019460019091019084016200041b565b50858210156200045b5787850151600019600388901b60f8161c191681555b5050505050600190811b01905550565b611962806200047b6000396000f3fe6080604052600436106101405760003560e01c80637e4831d3116100b6578063c87b56dd1161006f578063c87b56dd1461039b578063d85d3d27146103bb578063e985e9c5146103ce578063f2fde38b146103ee578063f30e6e771461040e578063f4a0a5281461042e57600080fd5b80637e4831d3146102ee5780638da5cb5b146103085780638f2fc60b1461032657806395d89b4114610346578063a22cb4651461035b578063b88d4fde1461037b57600080fd5b80632a55205a116101085780632a55205a1461021657806342842e0e146102555780636352211e146102755780636817c76c1461029557806370a08231146102b9578063715018a6146102d957600080fd5b806301ffc9a71461014557806306fdde031461017a578063081812fc1461019c578063095ea7b3146101d457806323b872dd146101f6575b600080fd5b34801561015157600080fd5b506101656101603660046113a6565b61044e565b60405190151581526020015b60405180910390f35b34801561018657600080fd5b5061018f61045f565b6040516101719190611413565b3480156101a857600080fd5b506101bc6101b7366004611426565b6104f1565b6040516001600160a01b039091168152602001610171565b3480156101e057600080fd5b506101f46101ef36600461145b565b61051a565b005b34801561020257600080fd5b506101f4610211366004611485565b610529565b34801561022257600080fd5b506102366102313660046114c1565b6105b9565b604080516001600160a01b039093168352602083019190915201610171565b34801561026157600080fd5b506101f4610270366004611485565b61063e565b34801561028157600080fd5b506101bc610290366004611426565b61065e565b3480156102a157600080fd5b506102ab600c5481565b604051908152602001610171565b3480156102c557600080fd5b506102ab6102d43660046114e3565b610669565b3480156102e557600080fd5b506101f46106b1565b3480156102fa57600080fd5b50600d546101659060ff1681565b34801561031457600080fd5b506007546001600160a01b03166101bc565b34801561033257600080fd5b506101f46103413660046114fe565b6106c5565b34801561035257600080fd5b5061018f6106d7565b34801561036757600080fd5b506101f4610376366004611551565b6106e6565b34801561038757600080fd5b506101f4610396366004611610565b6106f1565b3480156103a757600080fd5b5061018f6103b6366004611426565b610709565b6101f46103c936600461168c565b61081a565b3480156103da57600080fd5b506101656103e93660046116d5565b61097c565b3480156103fa57600080fd5b506101f46104093660046114e3565b6109aa565b34801561041a57600080fd5b506101f46104293660046116ff565b6109e5565b34801561043a57600080fd5b506101f4610449366004611426565b610a00565b600061045982610a0d565b92915050565b60606000805461046e9061171a565b80601f016020809104026020016040519081016040528092919081815260200182805461049a9061171a565b80156104e75780601f106104bc576101008083540402835291602001916104e7565b820191906000526020600020905b8154815290600101906020018083116104ca57829003601f168201915b5050505050905090565b60006104fc82610a32565b506000828152600460205260409020546001600160a01b0316610459565b610525828233610a6b565b5050565b6001600160a01b03821661055857604051633250574960e11b8152600060048201526024015b60405180910390fd5b6000610565838333610a78565b9050836001600160a01b0316816001600160a01b0316146105b3576040516364283d7b60e01b81526001600160a01b038086166004830152602482018490528216604482015260640161054f565b50505050565b600082815260096020526040812080548291906001600160a01b03811690600160a01b90046001600160601b03168161060d5750506008546001600160a01b03811690600160a01b90046001600160601b03165b60006127106106256001600160601b03841689611754565b61062f9190611779565b92989297509195505050505050565b610659838383604051806020016040528060008152506106f1565b505050565b600061045982610a32565b60006001600160a01b038216610695576040516322718ad960e21b81526000600482015260240161054f565b506001600160a01b031660009081526003602052604090205490565b6106b9610b71565b6106c36000610b9e565b565b6106cd610b71565b6105258282610bf0565b60606001805461046e9061171a565b610525338383610c93565b6106fc848484610529565b6105b33385858585610d32565b606061071482610a32565b506000828152600660205260408120805461072e9061171a565b80601f016020809104026020016040519081016040528092919081815260200182805461075a9061171a565b80156107a75780601f1061077c576101008083540402835291602001916107a7565b820191906000526020600020905b81548152906001019060200180831161078a57829003601f168201915b5050505050905060006107c560408051602081019091526000815290565b905080516000036107d7575092915050565b8151156108095780826040516020016107f192919061179b565b60405160208183030381529060405292505050919050565b61081284610e5d565b949350505050565b610822610ed2565b600d5460ff16156108635760405162461bcd60e51b815260206004820152600b60248201526a1b5a5b9d081c185d5cd95960aa1b604482015260640161054f565b600c543410156108a85760405162461bcd60e51b815260206004820152601060248201526f0d2dce6eaccccd2c6d2cadce8408aa8960831b604482015260640161054f565b600b8054600101908190556108bd3382610efc565b6108c78183610f16565b60006108db6007546001600160a01b031690565b6001600160a01b03164760405160006040518083038185875af1925050503d8060008114610925576040519150601f19603f3d011682016040523d82523d6000602084013e61092a565b606091505b505090508061096d5760405162461bcd60e51b815260206004820152600f60248201526e1dda5d1a191c985dc819985a5b1959608a1b604482015260640161054f565b50506109796001600a55565b50565b6001600160a01b03918216600090815260056020908152604080832093909416825291909152205460ff1690565b6109b2610b71565b6001600160a01b0381166109dc57604051631e4fbdf760e01b81526000600482015260240161054f565b61097981610b9e565b6109ed610b71565b600d805460ff1916911515919091179055565b610a08610b71565b600c55565b60006001600160e01b0319821663152a902d60e11b1480610459575061045982610f66565b6000818152600260205260408120546001600160a01b03168061045957604051637e27328960e01b81526004810184905260240161054f565b6106598383836001610f8b565b6000828152600260205260408120546001600160a01b0390811690831615610aa557610aa5818486611091565b6001600160a01b03811615610ae357610ac2600085600080610f8b565b6001600160a01b038116600090815260036020526040902080546000190190555b6001600160a01b03851615610b12576001600160a01b0385166000908152600360205260409020805460010190555b60008481526002602052604080822080546001600160a01b0319166001600160a01b0389811691821790925591518793918516917fddf252ad1be2c89b69c2b068fc378daa952ba7f163c4a11628f55a4df523b3ef91a4949350505050565b6007546001600160a01b031633146106c35760405163118cdaa760e01b815233600482015260240161054f565b600780546001600160a01b038381166001600160a01b0319831681179093556040519116919082907f8be0079c531659141344cd1fd0a4f28419497f9722a3daafe3b4186f6b6457e090600090a35050565b6127106001600160601b038216811015610c2f57604051636f483d0960e01b81526001600160601b03831660048201526024810182905260440161054f565b6001600160a01b038316610c5957604051635b6cc80560e11b81526000600482015260240161054f565b50604080518082019091526001600160a01b039092168083526001600160601b039091166020909201829052600160a01b90910217600855565b6001600160a01b038216610cc557604051630b61174360e31b81526001600160a01b038316600482015260240161054f565b6001600160a01b03838116600081815260056020908152604080832094871680845294825291829020805460ff191686151590811790915591519182527f17307eab39ab6107e8899845ad3d59bd9653f200f220920489ca2b5937696c31910160405180910390a3505050565b6001600160a01b0383163b15610e5657604051630a85bd0160e11b81526001600160a01b0384169063150b7a0290610d749088908890879087906004016117ca565b6020604051808303816000875af1925050508015610daf575060408051601f3d908101601f19168201909252610dac91810190611807565b60015b610e18573d808015610ddd576040519150601f19603f3d011682016040523d82523d6000602084013e610de2565b606091505b508051600003610e1057604051633250574960e11b81526001600160a01b038516600482015260240161054f565b805160208201fd5b6001600160e01b03198116630a85bd0160e11b14610e5457604051633250574960e11b81526001600160a01b038516600482015260240161054f565b505b5050505050565b6060610e6882610a32565b506000610e8060408051602081019091526000815290565b90506000815111610ea05760405180602001604052806000815250610ecb565b80610eaa846110f5565b604051602001610ebb92919061179b565b6040516020818303038152906040525b9392505050565b6002600a5403610ef557604051633ee5aeb560e01b815260040160405180910390fd5b6002600a55565b610525828260405180602001604052806000815250611188565b6000828152600660205260409020610f2e828261186c565b506040518281527ff8e1a15aba9398e019f0b49df1a4fde98ee17ae345cb5f6b5e2c27f5033e8ce79060200160405180910390a15050565b60006001600160e01b03198216632483248360e11b14806104595750610459826111a0565b8080610f9f57506001600160a01b03821615155b15611061576000610faf84610a32565b90506001600160a01b03831615801590610fdb5750826001600160a01b0316816001600160a01b031614155b8015610fee5750610fec818461097c565b155b156110175760405163a9fbf51f60e01b81526001600160a01b038416600482015260240161054f565b811561105f5783856001600160a01b0316826001600160a01b03167f8c5be1e5ebec7d5bd14f71427d1e84f3dd0314c0f7b2291e5b200ac8c7c3b92560405160405180910390a45b505b5050600090815260046020526040902080546001600160a01b0319166001600160a01b0392909216919091179055565b61109c8383836111f0565b610659576001600160a01b0383166110ca57604051637e27328960e01b81526004810182905260240161054f565b60405163177e802f60e01b81526001600160a01b03831660048201526024810182905260440161054f565b6060600061110283611253565b600101905060008167ffffffffffffffff81111561112257611122611584565b6040519080825280601f01601f19166020018201604052801561114c576020820181803683370190505b5090508181016020015b600019016f181899199a1a9b1b9c1cb0b131b232b360811b600a86061a8153600a850494508461115657509392505050565b611192838361132b565b610659336000858585610d32565b60006001600160e01b031982166380ac58cd60e01b14806111d157506001600160e01b03198216635b5e139f60e01b145b8061045957506301ffc9a760e01b6001600160e01b0319831614610459565b60006001600160a01b038316158015906108125750826001600160a01b0316846001600160a01b0316148061122a575061122a848461097c565b806108125750506000908152600460205260409020546001600160a01b03908116911614919050565b60008072184f03e93ff9f4daa797ed6e38ed64bf6a1f0160401b83106112925772184f03e93ff9f4daa797ed6e38ed64bf6a1f0160401b830492506040015b6d04ee2d6d415b85acef810000000083106112be576d04ee2d6d415b85acef8100000000830492506020015b662386f26fc1000083106112dc57662386f26fc10000830492506010015b6305f5e10083106112f4576305f5e100830492506008015b612710831061130857612710830492506004015b6064831061131a576064830492506002015b600a83106104595760010192915050565b6001600160a01b03821661135557604051633250574960e11b81526000600482015260240161054f565b600061136383836000610a78565b90506001600160a01b03811615610659576040516339e3563760e11b81526000600482015260240161054f565b6001600160e01b03198116811461097957600080fd5b6000602082840312156113b857600080fd5b8135610ecb81611390565b60005b838110156113de5781810151838201526020016113c6565b50506000910152565b600081518084526113ff8160208601602086016113c3565b601f01601f19169290920160200192915050565b602081526000610ecb60208301846113e7565b60006020828403121561143857600080fd5b5035919050565b80356001600160a01b038116811461145657600080fd5b919050565b6000806040838503121561146e57600080fd5b6114778361143f565b946020939093013593505050565b60008060006060848603121561149a57600080fd5b6114a38461143f565b92506114b16020850161143f565b9150604084013590509250925092565b600080604083850312156114d457600080fd5b50508035926020909101359150565b6000602082840312156114f557600080fd5b610ecb8261143f565b6000806040838503121561151157600080fd5b61151a8361143f565b915060208301356001600160601b038116811461153657600080fd5b809150509250929050565b8035801515811461145657600080fd5b6000806040838503121561156457600080fd5b61156d8361143f565b915061157b60208401611541565b90509250929050565b634e487b7160e01b600052604160045260246000fd5b600067ffffffffffffffff808411156115b5576115b5611584565b604051601f8501601f19908116603f011681019082821181831017156115dd576115dd611584565b816040528093508581528686860111156115f657600080fd5b858560208301376000602087830101525050509392505050565b6000806000806080858703121561162657600080fd5b61162f8561143f565b935061163d6020860161143f565b925060408501359150606085013567ffffffffffffffff81111561166057600080fd5b8501601f8101871361167157600080fd5b6116808782356020840161159a565b91505092959194509250565b60006020828403121561169e57600080fd5b813567ffffffffffffffff8111156116b557600080fd5b8201601f810184136116c657600080fd5b6108128482356020840161159a565b600080604083850312156116e857600080fd5b6116f18361143f565b915061157b6020840161143f565b60006020828403121561171157600080fd5b610ecb82611541565b600181811c9082168061172e57607f821691505b60208210810361174e57634e487b7160e01b600052602260045260246000fd5b50919050565b808202811582820484141761045957634e487b7160e01b600052601160045260246000fd5b60008261179657634e487b7160e01b600052601260045260246000fd5b500490565b600083516117ad8184602088016113c3565b8351908301906117c18183602088016113c3565b01949350505050565b6001600160a01b03858116825284166020820152604081018390526080606082018190526000906117fd908301846113e7565b9695505050505050565b60006020828403121561181957600080fd5b8151610ecb81611390565b601f821115610659576000816000526020600020601f850160051c8101602086101561184d5750805b601f850160051c820191505b81811015610e5457828155600101611859565b815167ffffffffffffffff81111561188657611886611584565b61189a81611894845461171a565b84611824565b602080601f8311600181146118cf57600084156118b75750858301515b600019600386901b1c1916600185901b178555610e54565b600085815260208120601f198616915b828110156118fe578886015182559484019460019091019084016118df565b508582101561191c5787850151600019600388901b60f8161c191681555b5050505050600190811b0190555056fea26469706673582212203bc8a09f3d1b21b593f95cdc9533be886369c1bed81c3cddcd393bc7dae4d33164736f6c63430008170033",
  "linkReferences": {},
  "deployedLinkReferences": {}
}